{
  "_format": "hh-sol-artifact-1",
  "contractName": "PropertyToken",
  "sourceName": "src/contracts/PropertyToken.sol",
  "abi": [
    {
      "inputs": [
        {
          "internalType": "string",
          "name": "name",
          "type": "string"
        },
        {
          "internalType": "string",
          "name": "symbol",
          "type": "string"
        },
        {
          "internalType": "uint256",
          "name": "initialSupply",
          "type": "uint256"
        },
        {
          "internalType": "uint256",
          "name": "_tokenPrice",
          "type": "uint256"
        }
      ],
      "stateMutability": "nonpayable",
      "type": "constructor"
    },
    {
      "inputs": [
        {
          "internalType": "address",
          "name": "spender",
          "type": "address"
        },
        {
          "internalType": "uint256",
          "name": "allowance",
          "type": "uint256"
        },
        {
          "internalType": "uint256",
          "name": "needed",
          "type": "uint256"
        }
      ],
      "name": "ERC20InsufficientAllowance",
      "type": "error"
    },
    {
      "inputs": [
        {
          "internalType": "address",
          "name": "sender",
          "type": "address"
        },
        {
          "internalType": "uint256",
          "name": "balance",
          "type": "uint256"
        },
        {
          "internalType": "uint256",
          "name": "needed",
          "type": "uint256"
        }
      ],
      "name": "ERC20InsufficientBalance",
      "type": "error"
    },
    {
      "inputs": [
        {
          "internalType": "address",
          "name": "approver",
          "type": "address"
        }
      ],
      "name": "ERC20InvalidApprover",
      "type": "error"
    },
    {
      "inputs": [
        {
          "internalType": "address",
          "name": "receiver",
          "type": "address"
        }
      ],
      "name": "ERC20InvalidReceiver",
      "type": "error"
    },
    {
      "inputs": [
        {
          "internalType": "address",
          "name": "sender",
          "type": "address"
        }
      ],
      "name": "ERC20InvalidSender",
      "type": "error"
    },
    {
      "inputs": [
        {
          "internalType": "address",
          "name": "spender",
          "type": "address"
        }
      ],
      "name": "ERC20InvalidSpender",
      "type": "error"
    },
    {
      "anonymous": false,
      "inputs": [
        {
          "indexed": true,
          "internalType": "address",
          "name": "owner",
          "type": "address"
        },
        {
          "indexed": true,
          "internalType": "address",
          "name": "spender",
          "type": "address"
        },
        {
          "indexed": false,
          "internalType": "uint256",
          "name": "value",
          "type": "uint256"
        }
      ],
      "name": "Approval",
      "type": "event"
    },
    {
      "anonymous": false,
      "inputs": [
        {
          "indexed": true,
          "internalType": "address",
          "name": "buyer",
          "type": "address"
        },
        {
          "indexed": false,
          "internalType": "uint256",
          "name": "amount",
          "type": "uint256"
        }
      ],
      "name": "TokensPurchased",
      "type": "event"
    },
    {
      "anonymous": false,
      "inputs": [
        {
          "indexed": true,
          "internalType": "address",
          "name": "from",
          "type": "address"
        },
        {
          "indexed": true,
          "internalType": "address",
          "name": "to",
          "type": "address"
        },
        {
          "indexed": false,
          "internalType": "uint256",
          "name": "value",
          "type": "uint256"
        }
      ],
      "name": "Transfer",
      "type": "event"
    },
    {
      "inputs": [
        {
          "internalType": "address",
          "name": "owner",
          "type": "address"
        },
        {
          "internalType": "address",
          "name": "spender",
          "type": "address"
        }
      ],
      "name": "allowance",
      "outputs": [
        {
          "internalType": "uint256",
          "name": "",
          "type": "uint256"
        }
      ],
      "stateMutability": "view",
      "type": "function"
    },
    {
      "inputs": [
        {
          "internalType": "address",
          "name": "spender",
          "type": "address"
        },
        {
          "internalType": "uint256",
          "name": "value",
          "type": "uint256"
        }
      ],
      "name": "approve",
      "outputs": [
        {
          "internalType": "bool",
          "name": "",
          "type": "bool"
        }
      ],
      "stateMutability": "nonpayable",
      "type": "function"
    },
    {
      "inputs": [
        {
          "internalType": "address",
          "name": "account",
          "type": "address"
        }
      ],
      "name": "balanceOf",
      "outputs": [
        {
          "internalType": "uint256",
          "name": "",
          "type": "uint256"
        }
      ],
      "stateMutability": "view",
      "type": "function"
    },
    {
      "inputs": [
        {
          "internalType": "uint256",
          "name": "amount",
          "type": "uint256"
        }
      ],
      "name": "buyTokens",
      "outputs": [],
      "stateMutability": "payable",
      "type": "function"
    },
    {
      "inputs": [],
      "name": "decimals",
      "outputs": [
        {
          "internalType": "uint8",
          "name": "",
          "type": "uint8"
        }
      ],
      "stateMutability": "view",
      "type": "function"
    },
    {
      "inputs": [],
      "name": "getAvailableTokens",
      "outputs": [
        {
          "internalType": "uint256",
          "name": "",
          "type": "uint256"
        }
      ],
      "stateMutability": "view",
      "type": "function"
    },
    {
      "inputs": [],
      "name": "getTokenPrice",
      "outputs": [
        {
          "internalType": "uint256",
          "name": "",
          "type": "uint256"
        }
      ],
      "stateMutability": "view",
      "type": "function"
    },
    {
      "inputs": [],
      "name": "name",
      "outputs": [
        {
          "internalType": "string",
          "name": "",
          "type": "string"
        }
      ],
      "stateMutability": "view",
      "type": "function"
    },
    {
      "inputs": [],
      "name": "propertyOwner",
      "outputs": [
        {
          "internalType": "address",
          "name": "",
          "type": "address"
        }
      ],
      "stateMutability": "view",
      "type": "function"
    },
    {
      "inputs": [],
      "name": "symbol",
      "outputs": [
        {
          "internalType": "string",
          "name": "",
          "type": "string"
        }
      ],
      "stateMutability": "view",
      "type": "function"
    },
    {
      "inputs": [],
      "name": "tokenPrice",
      "outputs": [
        {
          "internalType": "uint256",
          "name": "",
          "type": "uint256"
        }
      ],
      "stateMutability": "view",
      "type": "function"
    },
    {
      "inputs": [],
      "name": "totalSupply",
      "outputs": [
        {
          "internalType": "uint256",
          "name": "",
          "type": "uint256"
        }
      ],
      "stateMutability": "view",
      "type": "function"
    },
    {
      "inputs": [
        {
          "internalType": "address",
          "name": "to",
          "type": "address"
        },
        {
          "internalType": "uint256",
          "name": "value",
          "type": "uint256"
        }
      ],
      "name": "transfer",
      "outputs": [
        {
          "internalType": "bool",
          "name": "",
          "type": "bool"
        }
      ],
      "stateMutability": "nonpayable",
      "type": "function"
    },
    {
      "inputs": [
        {
          "internalType": "address",
          "name": "from",
          "type": "address"
        },
        {
          "internalType": "address",
          "name": "to",
          "type": "address"
        },
        {
          "internalType": "uint256",
          "name": "value",
          "type": "uint256"
        }
      ],
      "name": "transferFrom",
      "outputs": [
        {
          "internalType": "bool",
          "name": "",
          "type": "bool"
        }
      ],
      "stateMutability": "nonpayable",
      "type": "function"
    }
  ],
  "bytecode": "0x60806040523480156200001157600080fd5b5060405162000f5438038062000f548339810160408190526200003491620002c0565b83836003620000448382620003c9565b506004620000538282620003c9565b5050600680546001600160a01b0319163390811790915560058390556200007c91508362000086565b50505050620004bd565b6001600160a01b038216620000b65760405163ec442f0560e01b8152600060048201526024015b60405180910390fd5b620000c460008383620000c8565b5050565b6001600160a01b038316620000f7578060026000828254620000eb919062000495565b909155506200016b9050565b6001600160a01b038316600090815260208190526040902054818110156200014c5760405163391434e360e21b81526001600160a01b03851660048201526024810182905260448101839052606401620000ad565b6001600160a01b03841660009081526020819052604090209082900390555b6001600160a01b0382166200018957600280548290039055620001a8565b6001600160a01b03821660009081526020819052604090208054820190555b816001600160a01b0316836001600160a01b03167fddf252ad1be2c89b69c2b068fc378daa952ba7f163c4a11628f55a4df523b3ef83604051620001ee91815260200190565b60405180910390a3505050565b634e487b7160e01b600052604160045260246000fd5b600082601f8301126200022357600080fd5b81516001600160401b0380821115620002405762000240620001fb565b604051601f8301601f19908116603f011681019082821181831017156200026b576200026b620001fb565b816040528381526020925086838588010111156200028857600080fd5b600091505b83821015620002ac57858201830151818301840152908201906200028d565b600093810190920192909252949350505050565b60008060008060808587031215620002d757600080fd5b84516001600160401b0380821115620002ef57600080fd5b620002fd8883890162000211565b955060208701519150808211156200031457600080fd5b50620003238782880162000211565b604087015160609097015195989097509350505050565b600181811c908216806200034f57607f821691505b6020821081036200037057634e487b7160e01b600052602260045260246000fd5b50919050565b601f821115620003c457600081815260208120601f850160051c810160208610156200039f5750805b601f850160051c820191505b81811015620003c057828155600101620003ab565b5050505b505050565b81516001600160401b03811115620003e557620003e5620001fb565b620003fd81620003f684546200033a565b8462000376565b602080601f8311600181146200043557600084156200041c5750858301515b600019600386901b1c1916600185901b178555620003c0565b600085815260208120601f198616915b82811015620004665788860151825594840194600190910190840162000445565b5085821015620004855787850151600019600388901b60f8161c191681555b5050505050600190811b01905550565b80820180821115620004b757634e487b7160e01b600052601160045260246000fd5b92915050565b610a8780620004cd6000396000f3fe6080604052600436106100dd5760003560e01c806370a082311161007f578063a9059cbb11610059578063a9059cbb14610223578063dd62ed3e14610243578063e35568cb14610289578063f446c38f146102b657600080fd5b806370a08231146101c25780637ff9b596146101f857806395d89b411461020e57600080fd5b806323b872dd116100bb57806323b872dd1461015c578063313ce5671461017c5780633610724e146101985780634b94f50e146101ad57600080fd5b806306fdde03146100e2578063095ea7b31461010d57806318160ddd1461013d575b600080fd5b3480156100ee57600080fd5b506100f76102ee565b6040516101049190610886565b60405180910390f35b34801561011957600080fd5b5061012d6101283660046108f0565b610380565b6040519015158152602001610104565b34801561014957600080fd5b506002545b604051908152602001610104565b34801561016857600080fd5b5061012d61017736600461091a565b61039a565b34801561018857600080fd5b5060405160128152602001610104565b6101ab6101a6366004610956565b6103be565b005b3480156101b957600080fd5b5060055461014e565b3480156101ce57600080fd5b5061014e6101dd36600461096f565b6001600160a01b031660009081526020819052604090205490565b34801561020457600080fd5b5061014e60055481565b34801561021a57600080fd5b506100f761057a565b34801561022f57600080fd5b5061012d61023e3660046108f0565b610589565b34801561024f57600080fd5b5061014e61025e366004610991565b6001600160a01b03918216600090815260016020908152604080832093909416825291909152205490565b34801561029557600080fd5b506006546001600160a01b031660009081526020819052604090205461014e565b3480156102c257600080fd5b506006546102d6906001600160a01b031681565b6040516001600160a01b039091168152602001610104565b6060600380546102fd906109c4565b80601f0160208091040260200160405190810160405280929190818152602001828054610329906109c4565b80156103765780601f1061034b57610100808354040283529160200191610376565b820191906000526020600020905b81548152906001019060200180831161035957829003601f168201915b5050505050905090565b60003361038e818585610597565b60019150505b92915050565b6000336103a88582856105a9565b6103b3858585610628565b506001949350505050565b600081116104135760405162461bcd60e51b815260206004820152601d60248201527f416d6f756e74206d7573742062652067726561746572207468616e203000000060448201526064015b60405180910390fd5b6006546001600160a01b031660009081526020819052604090205481111561047d5760405162461bcd60e51b815260206004820152601b60248201527f4e6f7420656e6f75676820746f6b656e7320617661696c61626c650000000000604482015260640161040a565b60055461048a9082610a14565b3410156104d05760405162461bcd60e51b8152602060048201526014602482015273125b9cdd59999a58da595b9d081c185e5b595b9d60621b604482015260640161040a565b6006546104e7906001600160a01b03163383610628565b60405181815233907f8f28852646c20cc973d3a8218f7eefed58c25c909f78f0265af4818c3d4dc2719060200160405180910390a26005546105299082610a14565b3411156105775760055433906108fc906105439084610a14565b61054d9034610a2b565b6040518115909202916000818181858888f19350505050158015610575573d6000803e3d6000fd5b505b50565b6060600480546102fd906109c4565b60003361038e818585610628565b6105a48383836001610687565b505050565b6001600160a01b03838116600090815260016020908152604080832093861683529290522054600019811015610622578181101561061357604051637dc7a0d960e11b81526001600160a01b0384166004820152602481018290526044810183905260640161040a565b61062284848484036000610687565b50505050565b6001600160a01b03831661065257604051634b637e8f60e11b81526000600482015260240161040a565b6001600160a01b03821661067c5760405163ec442f0560e01b81526000600482015260240161040a565b6105a483838361075c565b6001600160a01b0384166106b15760405163e602df0560e01b81526000600482015260240161040a565b6001600160a01b0383166106db57604051634a1406b160e11b81526000600482015260240161040a565b6001600160a01b038085166000908152600160209081526040808320938716835292905220829055801561062257826001600160a01b0316846001600160a01b03167f8c5be1e5ebec7d5bd14f71427d1e84f3dd0314c0f7b2291e5b200ac8c7c3b9258460405161074e91815260200190565b60405180910390a350505050565b6001600160a01b03831661078757806002600082825461077c9190610a3e565b909155506107f99050565b6001600160a01b038316600090815260208190526040902054818110156107da5760405163391434e360e21b81526001600160a01b0385166004820152602481018290526044810183905260640161040a565b6001600160a01b03841660009081526020819052604090209082900390555b6001600160a01b03821661081557600280548290039055610834565b6001600160a01b03821660009081526020819052604090208054820190555b816001600160a01b0316836001600160a01b03167fddf252ad1be2c89b69c2b068fc378daa952ba7f163c4a11628f55a4df523b3ef8360405161087991815260200190565b60405180910390a3505050565b600060208083528351808285015260005b818110156108b357858101830151858201604001528201610897565b506000604082860101526040601f19601f8301168501019250505092915050565b80356001600160a01b03811681146108eb57600080fd5b919050565b6000806040838503121561090357600080fd5b61090c836108d4565b946020939093013593505050565b60008060006060848603121561092f57600080fd5b610938846108d4565b9250610946602085016108d4565b9150604084013590509250925092565b60006020828403121561096857600080fd5b5035919050565b60006020828403121561098157600080fd5b61098a826108d4565b9392505050565b600080604083850312156109a457600080fd5b6109ad836108d4565b91506109bb602084016108d4565b90509250929050565b600181811c908216806109d857607f821691505b6020821081036109f857634e487b7160e01b600052602260045260246000fd5b50919050565b634e487b7160e01b600052601160045260246000fd5b8082028115828204841417610394576103946109fe565b81810381811115610394576103946109fe565b80820180821115610394576103946109fe56fea2646970667358221220405ae5e4e6b1165a01128ad72c5dcdd60eb3164a018a6ea1b516c77e978860a964736f6c63430008140033",
  "linkReferences": {},
  "deployedLinkReferences": {}
}