{
  "_format": "hh-sol-artifact-1",
  "contractName": "PropertyToken",
  "sourceName": "contracts/PropertyToken.sol",
  "abi": [
    {
      "inputs": [
        {
          "internalType": "string",
          "name": "name",
          "type": "string"
        },
        {
          "internalType": "string",
          "name": "symbol",
          "type": "string"
        },
        {
          "internalType": "uint256",
          "name": "initialSupply",
          "type": "uint256"
        },
        {
          "internalType": "uint256",
          "name": "_tokenPrice",
          "type": "uint256"
        }
      ],
      "stateMutability": "nonpayable",
      "type": "constructor"
    },
    {
      "inputs": [
        {
          "internalType": "address",
          "name": "spender",
          "type": "address"
        },
        {
          "internalType": "uint256",
          "name": "allowance",
          "type": "uint256"
        },
        {
          "internalType": "uint256",
          "name": "needed",
          "type": "uint256"
        }
      ],
      "name": "ERC20InsufficientAllowance",
      "type": "error"
    },
    {
      "inputs": [
        {
          "internalType": "address",
          "name": "sender",
          "type": "address"
        },
        {
          "internalType": "uint256",
          "name": "balance",
          "type": "uint256"
        },
        {
          "internalType": "uint256",
          "name": "needed",
          "type": "uint256"
        }
      ],
      "name": "ERC20InsufficientBalance",
      "type": "error"
    },
    {
      "inputs": [
        {
          "internalType": "address",
          "name": "approver",
          "type": "address"
        }
      ],
      "name": "ERC20InvalidApprover",
      "type": "error"
    },
    {
      "inputs": [
        {
          "internalType": "address",
          "name": "receiver",
          "type": "address"
        }
      ],
      "name": "ERC20InvalidReceiver",
      "type": "error"
    },
    {
      "inputs": [
        {
          "internalType": "address",
          "name": "sender",
          "type": "address"
        }
      ],
      "name": "ERC20InvalidSender",
      "type": "error"
    },
    {
      "inputs": [
        {
          "internalType": "address",
          "name": "spender",
          "type": "address"
        }
      ],
      "name": "ERC20InvalidSpender",
      "type": "error"
    },
    {
      "anonymous": false,
      "inputs": [
        {
          "indexed": true,
          "internalType": "address",
          "name": "owner",
          "type": "address"
        },
        {
          "indexed": true,
          "internalType": "address",
          "name": "spender",
          "type": "address"
        },
        {
          "indexed": false,
          "internalType": "uint256",
          "name": "value",
          "type": "uint256"
        }
      ],
      "name": "Approval",
      "type": "event"
    },
    {
      "anonymous": false,
      "inputs": [
        {
          "indexed": true,
          "internalType": "address",
          "name": "buyer",
          "type": "address"
        },
        {
          "indexed": false,
          "internalType": "uint256",
          "name": "amount",
          "type": "uint256"
        }
      ],
      "name": "TokensPurchased",
      "type": "event"
    },
    {
      "anonymous": false,
      "inputs": [
        {
          "indexed": true,
          "internalType": "address",
          "name": "from",
          "type": "address"
        },
        {
          "indexed": true,
          "internalType": "address",
          "name": "to",
          "type": "address"
        },
        {
          "indexed": false,
          "internalType": "uint256",
          "name": "value",
          "type": "uint256"
        }
      ],
      "name": "Transfer",
      "type": "event"
    },
    {
      "inputs": [
        {
          "internalType": "address",
          "name": "owner",
          "type": "address"
        },
        {
          "internalType": "address",
          "name": "spender",
          "type": "address"
        }
      ],
      "name": "allowance",
      "outputs": [
        {
          "internalType": "uint256",
          "name": "",
          "type": "uint256"
        }
      ],
      "stateMutability": "view",
      "type": "function"
    },
    {
      "inputs": [
        {
          "internalType": "address",
          "name": "spender",
          "type": "address"
        },
        {
          "internalType": "uint256",
          "name": "value",
          "type": "uint256"
        }
      ],
      "name": "approve",
      "outputs": [
        {
          "internalType": "bool",
          "name": "",
          "type": "bool"
        }
      ],
      "stateMutability": "nonpayable",
      "type": "function"
    },
    {
      "inputs": [
        {
          "internalType": "address",
          "name": "account",
          "type": "address"
        }
      ],
      "name": "balanceOf",
      "outputs": [
        {
          "internalType": "uint256",
          "name": "",
          "type": "uint256"
        }
      ],
      "stateMutability": "view",
      "type": "function"
    },
    {
      "inputs": [
        {
          "internalType": "uint256",
          "name": "amount",
          "type": "uint256"
        }
      ],
      "name": "buyTokens",
      "outputs": [],
      "stateMutability": "payable",
      "type": "function"
    },
    {
      "inputs": [],
      "name": "decimals",
      "outputs": [
        {
          "internalType": "uint8",
          "name": "",
          "type": "uint8"
        }
      ],
      "stateMutability": "view",
      "type": "function"
    },
    {
      "inputs": [],
      "name": "getAvailableTokens",
      "outputs": [
        {
          "internalType": "uint256",
          "name": "",
          "type": "uint256"
        }
      ],
      "stateMutability": "view",
      "type": "function"
    },
    {
      "inputs": [],
      "name": "getTokenPrice",
      "outputs": [
        {
          "internalType": "uint256",
          "name": "",
          "type": "uint256"
        }
      ],
      "stateMutability": "view",
      "type": "function"
    },
    {
      "inputs": [],
      "name": "name",
      "outputs": [
        {
          "internalType": "string",
          "name": "",
          "type": "string"
        }
      ],
      "stateMutability": "view",
      "type": "function"
    },
    {
      "inputs": [],
      "name": "propertyOwner",
      "outputs": [
        {
          "internalType": "address",
          "name": "",
          "type": "address"
        }
      ],
      "stateMutability": "view",
      "type": "function"
    },
    {
      "inputs": [],
      "name": "symbol",
      "outputs": [
        {
          "internalType": "string",
          "name": "",
          "type": "string"
        }
      ],
      "stateMutability": "view",
      "type": "function"
    },
    {
      "inputs": [],
      "name": "tokenPrice",
      "outputs": [
        {
          "internalType": "uint256",
          "name": "",
          "type": "uint256"
        }
      ],
      "stateMutability": "view",
      "type": "function"
    },
    {
      "inputs": [],
      "name": "totalSupply",
      "outputs": [
        {
          "internalType": "uint256",
          "name": "",
          "type": "uint256"
        }
      ],
      "stateMutability": "view",
      "type": "function"
    },
    {
      "inputs": [
        {
          "internalType": "address",
          "name": "to",
          "type": "address"
        },
        {
          "internalType": "uint256",
          "name": "value",
          "type": "uint256"
        }
      ],
      "name": "transfer",
      "outputs": [
        {
          "internalType": "bool",
          "name": "",
          "type": "bool"
        }
      ],
      "stateMutability": "nonpayable",
      "type": "function"
    },
    {
      "inputs": [
        {
          "internalType": "address",
          "name": "from",
          "type": "address"
        },
        {
          "internalType": "address",
          "name": "to",
          "type": "address"
        },
        {
          "internalType": "uint256",
          "name": "value",
          "type": "uint256"
        }
      ],
      "name": "transferFrom",
      "outputs": [
        {
          "internalType": "bool",
          "name": "",
          "type": "bool"
        }
      ],
      "stateMutability": "nonpayable",
      "type": "function"
    }
  ],
  "bytecode": "0x60806040523480156200001157600080fd5b5060405162001e8c38038062001e8c83398181016040528101906200003791906200054e565b838381600390816200004a91906200083f565b5080600490816200005c91906200083f565b50505033600660006101000a81548173ffffffffffffffffffffffffffffffffffffffff021916908373ffffffffffffffffffffffffffffffffffffffff16021790555080600581905550620000b93383620000c360201b60201c565b5050505062000a5d565b600073ffffffffffffffffffffffffffffffffffffffff168273ffffffffffffffffffffffffffffffffffffffff1603620001385760006040517fec442f050000000000000000000000000000000000000000000000000000000081526004016200012f91906200096b565b60405180910390fd5b6200014c600083836200015060201b60201c565b5050565b600073ffffffffffffffffffffffffffffffffffffffff168373ffffffffffffffffffffffffffffffffffffffff1603620001a6578060026000828254620001999190620009b7565b925050819055506200027c565b60008060008573ffffffffffffffffffffffffffffffffffffffff1673ffffffffffffffffffffffffffffffffffffffff1681526020019081526020016000205490508181101562000235578381836040517fe450d38c0000000000000000000000000000000000000000000000000000000081526004016200022c9392919062000a03565b60405180910390fd5b8181036000808673ffffffffffffffffffffffffffffffffffffffff1673ffffffffffffffffffffffffffffffffffffffff16815260200190815260200160002081905550505b600073ffffffffffffffffffffffffffffffffffffffff168273ffffffffffffffffffffffffffffffffffffffff1603620002c7578060026000828254039250508190555062000314565b806000808473ffffffffffffffffffffffffffffffffffffffff1673ffffffffffffffffffffffffffffffffffffffff168152602001908152602001600020600082825401925050819055505b8173ffffffffffffffffffffffffffffffffffffffff168373ffffffffffffffffffffffffffffffffffffffff167fddf252ad1be2c89b69c2b068fc378daa952ba7f163c4a11628f55a4df523b3ef8360405162000373919062000a40565b60405180910390a3505050565b6000604051905090565b600080fd5b600080fd5b600080fd5b600080fd5b6000601f19601f8301169050919050565b7f4e487b7100000000000000000000000000000000000000000000000000000000600052604160045260246000fd5b620003e9826200039e565b810181811067ffffffffffffffff821117156200040b576200040a620003af565b5b80604052505050565b60006200042062000380565b90506200042e8282620003de565b919050565b600067ffffffffffffffff821115620004515762000450620003af565b5b6200045c826200039e565b9050602081019050919050565b60005b83811015620004895780820151818401526020810190506200046c565b60008484015250505050565b6000620004ac620004a68462000433565b62000414565b905082815260208101848484011115620004cb57620004ca62000399565b5b620004d884828562000469565b509392505050565b600082601f830112620004f857620004f762000394565b5b81516200050a84826020860162000495565b91505092915050565b6000819050919050565b620005288162000513565b81146200053457600080fd5b50565b60008151905062000548816200051d565b92915050565b600080600080608085870312156200056b576200056a6200038a565b5b600085015167ffffffffffffffff8111156200058c576200058b6200038f565b5b6200059a87828801620004e0565b945050602085015167ffffffffffffffff811115620005be57620005bd6200038f565b5b620005cc87828801620004e0565b9350506040620005df8782880162000537565b9250506060620005f28782880162000537565b91505092959194509250565b600081519050919050565b7f4e487b7100000000000000000000000000000000000000000000000000000000600052602260045260246000fd5b600060028204905060018216806200065157607f821691505b60208210810362000667576200066662000609565b5b50919050565b60008190508160005260206000209050919050565b60006020601f8301049050919050565b600082821b905092915050565b600060088302620006d17fffffffffffffffffffffffffffffffffffffffffffffffffffffffffffffffff8262000692565b620006dd868362000692565b95508019841693508086168417925050509392505050565b6000819050919050565b6000620007206200071a620007148462000513565b620006f5565b62000513565b9050919050565b6000819050919050565b6200073c83620006ff565b620007546200074b8262000727565b8484546200069f565b825550505050565b600090565b6200076b6200075c565b6200077881848462000731565b505050565b5b81811015620007a0576200079460008262000761565b6001810190506200077e565b5050565b601f821115620007ef57620007b9816200066d565b620007c48462000682565b81016020851015620007d4578190505b620007ec620007e38562000682565b8301826200077d565b50505b505050565b600082821c905092915050565b60006200081460001984600802620007f4565b1980831691505092915050565b60006200082f838362000801565b9150826002028217905092915050565b6200084a82620005fe565b67ffffffffffffffff811115620008665762000865620003af565b5b62000872825462000638565b6200087f828285620007a4565b600060209050601f831160018114620008b75760008415620008a2578287015190505b620008ae858262000821565b8655506200091e565b601f198416620008c7866200066d565b60005b82811015620008f157848901518255600182019150602085019450602081019050620008ca565b868310156200091157848901516200090d601f89168262000801565b8355505b6001600288020188555050505b505050505050565b600073ffffffffffffffffffffffffffffffffffffffff82169050919050565b6000620009538262000926565b9050919050565b620009658162000946565b82525050565b60006020820190506200098260008301846200095a565b92915050565b7f4e487b7100000000000000000000000000000000000000000000000000000000600052601160045260246000fd5b6000620009c48262000513565b9150620009d18362000513565b9250828201905080821115620009ec57620009eb62000988565b5b92915050565b620009fd8162000513565b82525050565b600060608201905062000a1a60008301866200095a565b62000a296020830185620009f2565b62000a386040830184620009f2565b949350505050565b600060208201905062000a576000830184620009f2565b92915050565b61141f8062000a6d6000396000f3fe6080604052600436106100dd5760003560e01c806370a082311161007f578063a9059cbb11610059578063a9059cbb146102b7578063dd62ed3e146102f4578063e35568cb14610331578063f446c38f1461035c576100dd565b806370a08231146102245780637ff9b5961461026157806395d89b411461028c576100dd565b806323b872dd116100bb57806323b872dd14610175578063313ce567146101b25780633610724e146101dd5780634b94f50e146101f9576100dd565b806306fdde03146100e2578063095ea7b31461010d57806318160ddd1461014a575b600080fd5b3480156100ee57600080fd5b506100f7610387565b6040516101049190610e8c565b60405180910390f35b34801561011957600080fd5b50610134600480360381019061012f9190610f47565b610419565b6040516101419190610fa2565b60405180910390f35b34801561015657600080fd5b5061015f61043c565b60405161016c9190610fcc565b60405180910390f35b34801561018157600080fd5b5061019c60048036038101906101979190610fe7565b610446565b6040516101a99190610fa2565b60405180910390f35b3480156101be57600080fd5b506101c7610475565b6040516101d49190611056565b60405180910390f35b6101f760048036038101906101f29190611071565b61047e565b005b34801561020557600080fd5b5061020e610671565b60405161021b9190610fcc565b60405180910390f35b34801561023057600080fd5b5061024b6004803603810190610246919061109e565b61067b565b6040516102589190610fcc565b60405180910390f35b34801561026d57600080fd5b506102766106c3565b6040516102839190610fcc565b60405180910390f35b34801561029857600080fd5b506102a16106c9565b6040516102ae9190610e8c565b60405180910390f35b3480156102c357600080fd5b506102de60048036038101906102d99190610f47565b61075b565b6040516102eb9190610fa2565b60405180910390f35b34801561030057600080fd5b5061031b600480360381019061031691906110cb565b61077e565b6040516103289190610fcc565b60405180910390f35b34801561033d57600080fd5b50610346610805565b6040516103539190610fcc565b60405180910390f35b34801561036857600080fd5b50610371610837565b60405161037e919061111a565b60405180910390f35b60606003805461039690611164565b80601f01602080910402602001604051908101604052809291908181526020018280546103c290611164565b801561040f5780601f106103e45761010080835404028352916020019161040f565b820191906000526020600020905b8154815290600101906020018083116103f257829003601f168201915b5050505050905090565b60008061042461085d565b9050610431818585610865565b600191505092915050565b6000600254905090565b60008061045161085d565b905061045e858285610877565b61046985858561090c565b60019150509392505050565b60006012905090565b600081116104c1576040517f08c379a00000000000000000000000000000000000000000000000000000000081526004016104b8906111e1565b60405180910390fd5b806104ed600660009054906101000a900473ffffffffffffffffffffffffffffffffffffffff1661067b565b101561052e576040517f08c379a00000000000000000000000000000000000000000000000000000000081526004016105259061124d565b60405180910390fd5b6005548161053c919061129c565b34101561057e576040517f08c379a00000000000000000000000000000000000000000000000000000000081526004016105759061132a565b60405180910390fd5b6105ab600660009054906101000a900473ffffffffffffffffffffffffffffffffffffffff16338361090c565b3373ffffffffffffffffffffffffffffffffffffffff167f8f28852646c20cc973d3a8218f7eefed58c25c909f78f0265af4818c3d4dc271826040516105f19190610fcc565b60405180910390a260055481610607919061129c565b34111561066e573373ffffffffffffffffffffffffffffffffffffffff166108fc60055483610636919061129c565b34610641919061134a565b9081150290604051600060405180830381858888f1935050505015801561066c573d6000803e3d6000fd5b505b50565b6000600554905090565b60008060008373ffffffffffffffffffffffffffffffffffffffff1673ffffffffffffffffffffffffffffffffffffffff168152602001908152602001600020549050919050565b60055481565b6060600480546106d890611164565b80601f016020809104026020016040519081016040528092919081815260200182805461070490611164565b80156107515780601f1061072657610100808354040283529160200191610751565b820191906000526020600020905b81548152906001019060200180831161073457829003601f168201915b5050505050905090565b60008061076661085d565b905061077381858561090c565b600191505092915050565b6000600160008473ffffffffffffffffffffffffffffffffffffffff1673ffffffffffffffffffffffffffffffffffffffff16815260200190815260200160002060008373ffffffffffffffffffffffffffffffffffffffff1673ffffffffffffffffffffffffffffffffffffffff16815260200190815260200160002054905092915050565b6000610832600660009054906101000a900473ffffffffffffffffffffffffffffffffffffffff1661067b565b905090565b600660009054906101000a900473ffffffffffffffffffffffffffffffffffffffff1681565b600033905090565b6108728383836001610a00565b505050565b6000610883848461077e565b90507fffffffffffffffffffffffffffffffffffffffffffffffffffffffffffffffff81101561090657818110156108f6578281836040517ffb8f41b20000000000000000000000000000000000000000000000000000000081526004016108ed9392919061137e565b60405180910390fd5b61090584848484036000610a00565b5b50505050565b600073ffffffffffffffffffffffffffffffffffffffff168373ffffffffffffffffffffffffffffffffffffffff160361097e5760006040517f96c6fd1e000000000000000000000000000000000000000000000000000000008152600401610975919061111a565b60405180910390fd5b600073ffffffffffffffffffffffffffffffffffffffff168273ffffffffffffffffffffffffffffffffffffffff16036109f05760006040517fec442f050000000000000000000000000000000000000000000000000000000081526004016109e7919061111a565b60405180910390fd5b6109fb838383610bd7565b505050565b600073ffffffffffffffffffffffffffffffffffffffff168473ffffffffffffffffffffffffffffffffffffffff1603610a725760006040517fe602df05000000000000000000000000000000000000000000000000000000008152600401610a69919061111a565b60405180910390fd5b600073ffffffffffffffffffffffffffffffffffffffff168373ffffffffffffffffffffffffffffffffffffffff1603610ae45760006040517f94280d62000000000000000000000000000000000000000000000000000000008152600401610adb919061111a565b60405180910390fd5b81600160008673ffffffffffffffffffffffffffffffffffffffff1673ffffffffffffffffffffffffffffffffffffffff16815260200190815260200160002060008573ffffffffffffffffffffffffffffffffffffffff1673ffffffffffffffffffffffffffffffffffffffff168152602001908152602001600020819055508015610bd1578273ffffffffffffffffffffffffffffffffffffffff168473ffffffffffffffffffffffffffffffffffffffff167f8c5be1e5ebec7d5bd14f71427d1e84f3dd0314c0f7b2291e5b200ac8c7c3b92584604051610bc89190610fcc565b60405180910390a35b50505050565b600073ffffffffffffffffffffffffffffffffffffffff168373ffffffffffffffffffffffffffffffffffffffff1603610c29578060026000828254610c1d91906113b5565b92505081905550610cfc565b60008060008573ffffffffffffffffffffffffffffffffffffffff1673ffffffffffffffffffffffffffffffffffffffff16815260200190815260200160002054905081811015610cb5578381836040517fe450d38c000000000000000000000000000000000000000000000000000000008152600401610cac9392919061137e565b60405180910390fd5b8181036000808673ffffffffffffffffffffffffffffffffffffffff1673ffffffffffffffffffffffffffffffffffffffff16815260200190815260200160002081905550505b600073ffffffffffffffffffffffffffffffffffffffff168273ffffffffffffffffffffffffffffffffffffffff1603610d455780600260008282540392505081905550610d92565b806000808473ffffffffffffffffffffffffffffffffffffffff1673ffffffffffffffffffffffffffffffffffffffff168152602001908152602001600020600082825401925050819055505b8173ffffffffffffffffffffffffffffffffffffffff168373ffffffffffffffffffffffffffffffffffffffff167fddf252ad1be2c89b69c2b068fc378daa952ba7f163c4a11628f55a4df523b3ef83604051610def9190610fcc565b60405180910390a3505050565b600081519050919050565b600082825260208201905092915050565b60005b83811015610e36578082015181840152602081019050610e1b565b60008484015250505050565b6000601f19601f8301169050919050565b6000610e5e82610dfc565b610e688185610e07565b9350610e78818560208601610e18565b610e8181610e42565b840191505092915050565b60006020820190508181036000830152610ea68184610e53565b905092915050565b600080fd5b600073ffffffffffffffffffffffffffffffffffffffff82169050919050565b6000610ede82610eb3565b9050919050565b610eee81610ed3565b8114610ef957600080fd5b50565b600081359050610f0b81610ee5565b92915050565b6000819050919050565b610f2481610f11565b8114610f2f57600080fd5b50565b600081359050610f4181610f1b565b92915050565b60008060408385031215610f5e57610f5d610eae565b5b6000610f6c85828601610efc565b9250506020610f7d85828601610f32565b9150509250929050565b60008115159050919050565b610f9c81610f87565b82525050565b6000602082019050610fb76000830184610f93565b92915050565b610fc681610f11565b82525050565b6000602082019050610fe16000830184610fbd565b92915050565b60008060006060848603121561100057610fff610eae565b5b600061100e86828701610efc565b935050602061101f86828701610efc565b925050604061103086828701610f32565b9150509250925092565b600060ff82169050919050565b6110508161103a565b82525050565b600060208201905061106b6000830184611047565b92915050565b60006020828403121561108757611086610eae565b5b600061109584828501610f32565b91505092915050565b6000602082840312156110b4576110b3610eae565b5b60006110c284828501610efc565b91505092915050565b600080604083850312156110e2576110e1610eae565b5b60006110f085828601610efc565b925050602061110185828601610efc565b9150509250929050565b61111481610ed3565b82525050565b600060208201905061112f600083018461110b565b92915050565b7f4e487b7100000000000000000000000000000000000000000000000000000000600052602260045260246000fd5b6000600282049050600182168061117c57607f821691505b60208210810361118f5761118e611135565b5b50919050565b7f416d6f756e74206d7573742062652067726561746572207468616e2030000000600082015250565b60006111cb601d83610e07565b91506111d682611195565b602082019050919050565b600060208201905081810360008301526111fa816111be565b9050919050565b7f4e6f7420656e6f75676820746f6b656e7320617661696c61626c650000000000600082015250565b6000611237601b83610e07565b915061124282611201565b602082019050919050565b600060208201905081810360008301526112668161122a565b9050919050565b7f4e487b7100000000000000000000000000000000000000000000000000000000600052601160045260246000fd5b60006112a782610f11565b91506112b283610f11565b92508282026112c081610f11565b915082820484148315176112d7576112d661126d565b5b5092915050565b7f496e73756666696369656e74207061796d656e74000000000000000000000000600082015250565b6000611314601483610e07565b915061131f826112de565b602082019050919050565b6000602082019050818103600083015261134381611307565b9050919050565b600061135582610f11565b915061136083610f11565b92508282039050818111156113785761137761126d565b5b92915050565b6000606082019050611393600083018661110b565b6113a06020830185610fbd565b6113ad6040830184610fbd565b949350505050565b60006113c082610f11565b91506113cb83610f11565b92508282019050808211156113e3576113e261126d565b5b9291505056fea26469706673582212206b5ff27cfcec0ded0693a57348d7056647d2e7dced55ef0a8040142ad14b1a1864736f6c63430008140033",
  "linkReferences": {},
  "deployedLinkReferences": {}
}